S010000031362062792031362E737265632B
S11300000C942A000C943F000C943F000C943F0085
S11300100C943F000C943F000C943F000C943F0060
S11300200C943F000C943F000C943F000C943F0050
S11300300C943F000C943F000C943F000C943F0040
S11300400C943F000C943F000C943F000C943F0030
S11300500C943F0011241FBECFE5D8E0DEBFCDBF16
S113006010E0A0E6B0E0E8E3F1E002C005900D92F4
S1130070A437B107D9F70E9462000C949A000C943B
S1130080000082E08BB988E18AB986E880BD10BCA3
S11300908CE089B908955D9BFECF8CB908955F9B70
S11300A0FECF8CB10895CF93DF93EC018881882330
S11300B031F021960E944B0089918111FBCFDF9191
S11300C0CF9108958FEF8ABB87BB0E9441001BBA72
S11300D00F2EF6E0FF2EF02D05E014E0D3E0C1E092
S11300E00E944F00823331F480E690E00E94530076
S11300F0CBBBF6CF833331F480E690E00E9453000B
S1130100DBBBEECF843331F480E690E00E945300F1
S11301101BBBE6CF853331F480E690E00E945300A8
S11301200BBBDECF8633E1F680E690E00E945300FD
S10B0130FBBAD6CFF894FFCF0F
S1130138796F75206172652073656E64696E6720D6
S1070148310A000074
S9030000FC
