:100000000C942A000C943F000C943F000C943F0089
:100010000C943F000C943F000C943F000C943F0064
:100020000C943F000C943F000C943F000C943F0054
:100030000C943F000C943F000C943F000C943F0044
:100040000C943F000C943F000C943F000C943F0034
:100050000C943F0011241FBECFE5D8E0DEBFCDBF1A
:1000600010E0A0E6B0E0E2E3F1E002C005900D92FE
:10007000AC3AB107D9F70E9462000C9497000C9437
:10008000000082E08BB988E18AB986E880BD10BCA7
:100090008CE089B908955D9BFECF8CB908955F9B74
:1000A000FECF8CB10895CF93DF93EC018881882334
:1000B00031F021960E944B0089918111FBCFDF9195
:1000C000CF9108958FEF8ABB87BB0E94410008E45F
:1000D00014E4D2E4C1E40E944F00813331F480E69D
:1000E00090E00E945300CBBB17C0823331F483E70A
:1000F00090E00E945300DBBB0FC0833331F486E8ED
:1001000090E00E9453001BBB07C0843329F489E9A7
:1001100090E00E9453000BBB2FE38DE093E0215051
:1001200080409040E1F700C00000DE98D4CFF89402
:02013000FFCFFF
:10013200796F75206172652073656E64696E6720E0
:10014200310A00796F75206172652073656E64698A
:100152006E6720320A00796F7520617265207365BF
:100162006E64696E6720330A00796F75206172656B
:0C0172002073656E64696E6720340A001B
:00000001FF
