S01400006465636F6465725F6E6578742E737265631C
S11300000C942A000C9447000C9449000C9447006B
S11300100C9447000C9447000C9447000C94470040
S11300200C9447000C9447000C9447000C94470030
S11300300C9447000C9447000C9447000C94470020
S11300400C9447000C9447000C9447000C94470010
S11300500C94470011241FBECFE5D8E0DEBFCDBF0E
S113006011E0A0E6B0E0E0E6F1E002C005900D92F8
S1130070A036B107D9F721E0A0E6B1E001C01D9296
S1130080A236B207E1F70E9467000C94AE000C940C
S113009000001F920F920FB60F9211242F933F93DB
S11300A08F939F93209160013091610181E090E0F2
S11300B0821B930B90936101809360019F918F91B8
S11300C03F912F910F900FBE0F901F9018958FEFB7
S11300D08ABB87BBC0E6D0E000E611E0A1E0B0E057
S11300E020E630E0A901F901668577857E96929134
S11300F0829193838283E217F307C9F7FA0171832C
S11301006083205E3F4F0217130761F70F2EF8EE4E
S1130110EF2EF3E0FF2EF02DBE0140E050E0CD01C4
S1130120042E02C0880F991F0A94E2F78BBBFB01CF
S113013080E0219131912130310509F488BB8F5F32
S11301408031B9F74F5F5F4F605E7F4F4830510594
S113015031F7F1E0EF1AF108F9F6C2CFF894FFCFC6
S1130160000000000000000000000000000000008B
S1130170000000000000000000000000000000007B
S11301800100010001000100010001000100010063
S11301900100010001000100010001000100010053
S11301A00100000000000000000000000000010049
S11301B00100000000000000000000000000010039
S11301C00100000000000000000000000000010029
S11301D00100000000000100010001000100010015
S11301E00100000000000000000000000000010009
S11301F001000000000000000100010001000100F6
S113020001000000000000000000000000000100E8
S113021001000000000000000000000000000100D8
S113022001000000000000000000000000000100C8
S113023001000000000000000000000000000100B8
S113024001000100010001000100010001000100A2
S11302500100010001000100010001000100010092
S9030000FC
