S01500006465636F6465725F73746172742E73726563AC
S11300000C942A000C9447000C9449000C9447006B
S11300100C9447000C9447000C9447000C94470040
S11300200C9447000C9447000C9447000C94470030
S11300300C9447000C9447000C9447000C94470020
S11300400C9447000C9447000C9447000C94470010
S11300500C94470011241FBECFE5D8E0DEBFCDBF0E
S113006010E0A0E6B0E0ECE6F1E002C005900D92ED
S1130070A03EB107D9F720E0A0EEB0E001C01D9288
S1130080A23EB207E1F70E9467000C94B4000C94FE
S113009000001F920F920FB60F9211242F933F93DB
S11300A08F939F932091E0003091E10081E090E0F4
S11300B0821B930B9093E1008093E0009F918F91BA
S11300C03F912F910F900FBE0F901F9018958FEFB7
S11300D08ABB87BB00E610E00F2EF0EECF2EF0E0D7
S11300E0DF2EF02D61E070E0A0E6B0E0ED011E9699
S11300F02D913C911F97FD013E969291829193839D
S11301008283AE17BF07C9F7398328835096CA166E
S1130110DB0661F7C8EED3E0D80140E050E0F62EEC
S1130120042E01C0FF0C0A94EAF7FD0180E090E080
S1130130219131912130310551F4FBBA9B01082EF4
S113014002C0220F331F0A94E2F7209528BB0196C0
S11301508830910569F74F5F5F4F509648305105DD
S10F0160F1F62197C9F6C0CFF894FFCF48
S113016C000000000000000000000000000000007F
S113017C0100010001000100010001000100010067
S113018C010000000000000000000000000001005D
S113019C010000000000000000000000000001004D
S11301AC010000000000000000000000000001003D
S11301BC010000000000000000000000000001002D
S11301CC010000000000000000000000000001001D
S11301DC0100010001000100010001000100010007
S9030000FC
