S011000064656B6861206A616B2E73726563C0
S11300000C942A000C943F000C943F000C943F0085
S11300100C943F000C943F000C943F000C943F0060
S11300200C943F000C943F000C943F000C943F0050
S11300300C943F000C943F000C943F000C943F0040
S11300400C943F000C943F000C943F000C943F0030
S11300500C943F0011241FBECFE5D8E0DEBFCDBF16
S113006010E0A0E6B0E0E4E9F1E002C005900D92F2
S1130070A438B107D9F70E9486000C94C8000C94E8
S113008000002AB128612AB920B5266820BDDC0108
S1130090CB01880F991FAA1FBB1F880F991FAA1F86
S11300A0BB1F9C01AD01220F331F441F551F220F9C
S11300B0331F441F551F60E072E18AE790E00E94FD
S11300C0A6008FEF820F89B9DA01C9010197A1094E
S11300D0B109892F9A2FAB2FBB2780BD08955F9B51
S11300E0FECF8CB108958CB95D9BFECF0895CF935C
S11300F0DF93EC018881882331F021960E947300FC
S113010089918111FBCFDF91CF9108958FEF87BB48
S113011060E875E280E090E00E94410018BA0E9415
S11301206F00813331F4C09A80E690E00E9477003A
S1130130F6CF823331F4C09887E690E00E947700CE
S1130140EECF8FE690E00E947700E9CFA1E21A2E6D
S1130150AA1BBB1BFD010DC0AA1FBB1FEE1FFF1F67
S1130160A217B307E407F50720F0A21BB30BE40BB7
S1130170F50B661F771F881F991F1A9469F76095FE
S11301807095809590959B01AC01BD01CF010895B8
S1070190F894FFCF0D
S11301944C45445F4F4E004C45445F4F4646005324
S11301A4656C6563742070726F706572206F70740F
S10701B4696F6E00FD
S9030000FC
