S012000066696E616C5F626C75652E7372656301
S11300000C942A000C943F000C943F000C943F0085
S11300100C943F000C943F000C943F000C943F0060
S11300200C943F000C943F000C943F000C943F0050
S11300300C943F000C943F000C943F000C943F0040
S11300400C943F000C943F000C943F000C943F0030
S11300500C943F0011241FBECFE5D8E0DEBFCDBF16
S113006010E0A0E6B0E0ECEBF1E002C005900D92E8
S1130070A03CB107D9F70E9462000C94DC000C94F8
S1130080000082E08BB988E18AB986E880BD10BCA3
S11300908CE089B908955D9BFECF8CB908955F9B70
S11300A0FECF8CB10895CF93DF93EC018881882330
S11300B031F021960E944B0089918111FBCFDF9191
S11300C0CF9108958FEF8ABB87BB0E9441001BBA72
S11300D00F2EF6E0EF2EF02D0F2EF5E0FF2EF02D73
S11300E004E013E0D2E0C1E00E944F00813381F4C8
S11300F080E690E00E945300CBBB2FEF89EF90E0A5
S1130100215080409040E1F700C000001BBAECCFC2
S1130110823381F483E790E00E945300DBBB2FEF2E
S113012089EF90E0215080409040E1F700C000004A
S11301301BBADACF833381F486E890E00E9453003F
S11301401BBB2FEF89EF90E0215080409040E1F7F6
S113015000C000001BBAC8CF843381F489E990E061
S11301600E9453000BBB2FEF89EF90E02150804099
S11301709040E1F700C000001BBAB6CF853381F48C
S11301808CEA90E00E945300FBBA2FE188E491E0EE
S1130190215080409040E1F700C000001BBAA4CF7A
S11301A0863309F0A1CFEBBA8BE49DE10197F1F717
S10F01B000C000001BBA98CFF894FFCFE9
S11301BC796F75206172652073656E64696E672052
S11301CC310A00796F75206172652073656E6469FC
S11301DC6E6720320A00796F752061726520736531
S11301EC6E64696E6720330A00796F7520617265DD
S11301FC2073656E64696E6720340A00796F75200C
S113020C6172652073656E64696E6720350A00003F
S9030000FC
