S01E00007369725F636F64655F666F725F626C7565746F6F74682E73726563E3
S11300000C942A000C943F000C943F000C943F0085
S11300100C943F000C943F000C943F000C943F0060
S11300200C943F000C943F000C943F000C943F0050
S11300300C943F000C943F000C943F000C943F0040
S11300400C943F000C943F000C943F000C943F0030
S11300500C943F0011241FBECFE5D8E0DEBFCDBF16
S113006010E0A0E6B0E0E6E0F1E002C005900D92F9
S1130070A638B107D9F70E9462000C9481000C9451
S1130080000082E08BB988E18AB986E880BD10BCA3
S11300908CE089B908955D9BFECF8CB908955F9B70
S11300A0FECF8CB10895CF93DF93EC018881882330
S11300B031F021960E944B0089918111FBCFDF9191
S11300C0CF91089587EF8ABB0E9441008EEF8ABBCF
S11300D00E944F00813329F480E690E00E9453008F
S11300E006C0823321F483E790E00E9453002FE39B
S11300F08DE093E0215080409040E1F700C0000083
S1090100E7CFF894FFCFE5
S1130106796F75206172652073656E64696E672008
S1130116310A00796F75206172652073656E6469B2
S10901266E6720320A009E
S9030000FC
