:100000000C942A000C9447000C9447000C94470071
:100010000C9447000C9447000C9447000C94470044
:100020000C9447000C9447000C9447000C94470034
:100030000C9447000C9447000C9447000C94470024
:100040000C9447000C9447000C9447000C94470014
:100050000C94470011241FBECFE5D8E0DEBFCDBF12
:1000600010E0A0E6B0E0EAE9F1E002C005900D92F0
:10007000A03EB107D9F720E0A0EEB0E001C01D928C
:10008000A03EB207E1F70E9449000C94CB000C940B
:1000900000008FEF8ABB87BB14BA60EE70E041E0CE
:1000A00050E0989B19C09E9B71C0A0E6B0E0ED01A6
:1000B0001E962D913C911F97FD013E969291829143
:1000C00093838283AE17BF07C9F73983288350967D
:1000D000A617B70761F75AC0999B1AC09E9B56C0D6
:1000E000A0E6B0E0ED010D911C9111979D01225FFA
:1000F0003F4FFD0182819381819391932E173F079A
:10010000C9F71F870E8750966A177B0759F73EC0BD
:1001100083B38474D9F1A0E6B0E0ED010D911C9198
:1001200011979D01225F3F4FFD0182819381819351
:100130009193E217F307C9F71F870E8750966A1746
:100140007B0759F723C0A42F0C2E01C0AA0F0A94D5
:10015000EAF7F80180E090E02191319121303105FA
:1001600051F4ABBB9A01082E02C0220F331F0A9430
:10017000E2F7209528BB01968830910569F7219612
:10018000005F1F4FC830D105F1F68BCF00E610E0BD
:0A019000C0E0D0E0D8CFF894FFCF14
:10019A000000000000000000000000000000000055
:1001AA000000000000000100000000000000000044
:1001BA000000000000000100000000000000000034
:1001CA000000000000000100000000000000000024
:1001DA000000000001000100010000000000000012
:1001EA000000000000000100000000000000000004
:1001FA0000000000000001000000000000000000F4
:10020A0000000000000001000000000000000000E3
:00000001FF
