:100000000C942A000C9447000C9449000C9447006F
:100010000C9447000C9447000C9447000C94470044
:100020000C9447000C9447000C9447000C94470034
:100030000C9447000C9447000C9447000C94470024
:100040000C9447000C9447000C9447000C94470014
:100050000C94470011241FBECFE5D8E0DEBFCDBF12
:1000600011E0A0E6B0E0EAEEF1E002C005900D92EA
:10007000A036B107D9F721E0A0E6B1E001C01D929A
:10008000A236B207E1F70E9467000C94F3000C94CB
:1000900000001F920F920FB60F9211242F933F93DF
:1000A0008F939F93209160013091610181E090E0F6
:1000B000821B930B90936101809360019F918F91BC
:1000C0003F912F910F900FBE0F901F9018958FEFBB
:1000D0008ABB87BB11BA80E090E00F2EF0E92F2E8B
:1000E00033243394F02DC12CD12CBB24B3946894C9
:1000F000EE24E1F8F12C8B2C512CA12C912C0196A3
:10010000B1010E94CB0000E610E060E070E02C2D11
:100110003D2D6B2C062E01C0660C0A94EAF7F801FF
:10012000C0E0DF01408151814130510511F46BBACB
:10013000C8BB2115310511F5809B20C04D915C9104
:10014000119742305105D1F46BBAC8BB8C3241E0F3
:100150009407A1F411961C921E9212968D919C9177
:100160001397019739F01396FC92EE9212978A2D0D
:10017000992D04C0282D352D8A2D992D3296CF5FCB
:10018000C03179F66F5F7F4F005E1F4F6830710599
:1001900009F4B5CFBECF97FB072E16F4009407D015
:1001A00077FD09D00E94DF0007FC05D03EF4909552
:1001B00081959F4F0895709561957F4F0895AA1B73
:1001C000BB1B51E107C0AA1FBB1FA617B70710F042
:1001D000A61BB70B881F991F5A95A9F78095909574
:0A01E000BC01CD010895F894FFCF93
:1001EA000000000000000000000000000000000005
:1001FA0000000000000000000000000000000000F5
:10020A0000000000010000000000000000000000E3
:10021A0000000000000000000000000001000000D3
:10022A0000000000010000000000000000000000C3
:10023A0000000000000000000000000001000000B3
:10024A00000001000100010002000000000000009F
:10025A000000000000000000000001000100010091
:10026A000000000001000000000000000000000083
:10027A000000000000000000000000000100000073
:10028A000000000001000000000000000000000063
:10029A000000000000000000000000000100000053
:1002AA000000000001000000000000000000000043
:1002BA000000000000000000000000000100000033
:1002CA000000000000000000000000000000000024
:1002DA000000000000000000000000000000000014
:00000001FF
