:100000000C942A000C943F000C943F000C943F0089
:100010000C943F000C943F000C943F000C943F0064
:100020000C943F000C943F000C943F000C943F0054
:100030000C943F000C943F000C943F000C943F0044
:100040000C943F000C943F000C943F000C943F0034
:100050000C943F0011241FBECFE5D8E0DEBFCDBF1A
:1000600010E0A0E6B0E0EEEFF0E002C005900D92E7
:10007000A437B107D9F70E9462000C947D000C945C
:10008000000082E08BB988E18AB986E880BD10BCA7
:100090008CE089B908955D9BFECF8CB908955F9B74
:1000A000FECF8CB10895CF93DF93EC018881882334
:1000B00031F021960E944B0089918111FBCFDF9195
:1000C000CF9108958FEF8ABB87BB0E9441001BBA76
:1000D000C1E80E944F00813329F480E690E00E943D
:1000E0005300CBBB2FE38DE093E021508040904044
:0E00F000E1F700C00000DF98ECCFF894FFCFDE
:1000FE00796F75206172652073656E64696E672015
:04010E00310A0000B2
:00000001FF
