S011000031365F31365F6269732E7372656349
S11300000C942A000C9447000C9449000C9447006B
S11300100C9447000C9447000C9447000C94470040
S11300200C9447000C9447000C9447000C94470030
S11300300C9447000C9447000C9447000C94470020
S11300400C9447000C9447000C9447000C94470010
S11300500C94470011241FBECFE5D8E0DEBFCDBF0E
S113006012E0A0E6B0E0E4E1F1E002C005900D92F8
S1130070A036B107D9F722E0A0E6B2E001C01D9294
S1130080A236B207E1F70E9467000C9488000C9432
S113009000001F920F920FB60F9211242F933F93DB
S11300A08F939F93209160023091610281E090E0F0
S11300B0821B930B90936102809360029F918F91B6
S11300C03F912F910F900FBE0F901F9018958FEFB7
S11300D08ABB87BB11BA18BAA8EEB3E060E670E039
S11300E040E0FB0180E0219131912130310529F478
S11300F04BBB88BB98B39F7398BB8F5F803199F7D4
S1130100605E7F4F4F5F403161F7119721F3E6CF77
S1070110F894FFCF8D
S113011400000000000000000000000000000000D7
S113012400000000000000000000000000000000C7
S113013400000000000000000000000000000000B7
S113014400000000000000000000000000000000A7
S11301540000000000000000000000000000000097
S11301640000000000000000000000000000000087
S11301740000000001000100010001000100010071
S11301840100010001000100010001000100000060
S11301940000000001000000000000000000000056
S11301A40000000000000000000000000100000046
S11301B40000000001000000000000000000000036
S11301C40000000000000000000000000100000026
S11301D40000000001000000000000000000000016
S11301E40000010000000000000000000100000005
S11301F400000000010000000000000000000000F6
S113020400000100000000000000000001000000E4
S113021400000000010000000000000000000000D5
S113022400000100000000000000000001000000C4
S113023400000000010000000000000000000000B5
S113024400000100000000000000000001000000A4
S11302540000000001000000000000000000000095
S11302640000010000000100000000000100000083
S11302740000000001000000000000000000000075
S11302840000000000000000000000000100000065
S11302940000000001000000000000000000000055
S11302A40000000000000000000000000100000045
S11302B40000000001000100010001000100010030
S11302C4010001000100010001000100010000001F
S11302D40000000000000000000000000000000016
S11302E40000000000000000000000000000000006
S11302F400000000000000000000000000000000F6
S113030400000000000000000000000000000000E5
S9030000FC
